:020000021000EC
:100000000000042031A6010069A6010099890100C1
:100010006DA60100A5890100AB8901000000000068
:100020000000000000000000000000008534010016
:1000300075A60100000000001F3501002F350100EA
:10004000B5E20100615901007BA601007BA6010019
:100050007BA601007BA601007BA601007BA6010018
:100060007BA601007BA601007BA601007BA6010008
:100070007BA6010049E401007BA60100795901003B
:100080007BA601007BA601007BA601007BA60100E8
:100090007BA601007BA601007BA601007BA60100D8
:1000A0007BA601007BA601007BA601007BA60100C8
:1000B0007BA601007BA601000000000000000000FC
:1000C0007BA601007BA601007BA601007BA60100A8
:1000D0007BA601007BA601007BA601007BA6010098
:1000E0007BA601007BA601007BA6010000000000AA
:1000F000000000007BA60100000000007BA60100BC
:1001000010B5054C237833B9044B13B10448AFF351
:1001100000800123237010BD0010002000000000AB
:100120007C6D020008B5034B1BB103490348AFF3D4
:10013000008008BD00000000041000207C6D02005B
:10014000154B002B08BF134B9D46A3F5803A0021A9
:100150008B460F461348144A121A11F039FA0F4B06
:10016000002B00D098470E4B002B00D09847002062
:10017000002104000D000D48002802D00C4809F0B1
:10018000A7F910F037FD2000290005F02BFA09F03F
:100190009CF900BF000008000000042000000000DF
:1001A000415501000010002040BE0020D194010004
:1001B000000000000368C9B21B68184708B5012297
:1001C0000021044800F096FB0348BDE8084000F019
:1001D0009FBC00BF381000200C14002010B5134C39
:1001E0006821204600F003FA6B212046FFF7E2FF6A
:1001F00000212046FFF7DEFF204600F0FEF92046F2
:10020000682100F0F4F91C212046FFF7D3FF0021FC
:100210002046FFF7CFFF0121204600F0A7FA04494E
:100220000448BDE8104002F0FDBE00BF38100020B9
:10023000904B0200AC1E002070B568212DED028BA2
:10024000374800F0D4F93B213548FFF7B3FF0021D0
:10025000334800F08BFA06226821314800F0D1F9CA
:100260002F4800F037FA062856D12D482D4E2E4D36
:1002700000F03AFA04462A4800F036FA40EA042030
:100280003080274800F030FA0446254800F02CFA68
:1002900040EA04202880224800F026FA044620483C
:1002A00000F022FA214B40EA042424B21C80B6F963
:1002B00000000FF011F900221D4B0FF077F90FF03D
:1002C00045FC1C4B08EE900A1860B5F900000FF0D1
:1002D00003F90022164B0FF069F90FF037FC164BAB
:1002E00008EE100A186020460FF0F6F80022104BB6
:1002F0000FF05CF928EE088A0FF028FCA8EEA88A17
:100300000E4B07EE900AA7EEA78A186018EE100AA7
:100310000FF03CFE0A4B1860BDEC028B70BD00BFB5
:10032000381000202010002028100020301000205D
:100330000000103F1C100020241000202C10002072
:10034000081400202DE9F04F6E4C6F4DDFF8CC9172
:10035000DFF8CC81642385B0236000262168F7B2E2
:100360008F4216DA284600F0D4FB18B9284600F070
:1003700015FCF7E7284600F0CAFC49F82700284694
:1003800000F0D1FC48F82700284600F0CFFB0136EA
:10039000E4E75E4D5E4E5F4F0295019600975E4B1F
:1003A0005E4A5F48DFF86081DFF870A1DFF870B166
:1003B00000F0F4FE5B4B5C4A03F59671986E43F8CF
:1003C000040F906E42F8040F8B42F7D14FF04B09A7
:1003D000404600F09EFB18B9404600F0DFFBF7E70F
:1003E000404600F094FC4AF82900404600F09BFC8F
:1003F0004BF82900404609F1010900F097FBB9F1DB
:10040000640FE5D1444B2168009752465846CDE928
:10041000016500F0C3FEFFF70FFF444802F0F2FD54
:100420004349424802F0FEFD95F90030002B64D0AC
:1004300040493E4802F0DFFD31683C480A2202F0A4
:1004400018FE3D49394802F0EDFD97F90030002BC8
:1004500055D03A49354802F0CEFD2F4B3348196844
:100460000A2202F006FE3649304802F0DBFD35492B
:100470002E4802F0C0FD344B18680FF03FF84FF0E3
:10048000030902460B46CDF80090284802F0DCFE36
:100490002E49264802F0AFFD2D4B18680FF02EF8BC
:1004A000CDF8009002460B46204802F0CDFE2949C7
:1004B0001E4802F0A0FD284B18680FF01FF8CDF879
:1004C000009002460B46194802F0BEFE2349174829
:1004D00002F091FD224B18680FF010F8CDF8009053
:1004E00002460B46114802F0AFFE1E490F4802F0CB
:1004F00099FD0E4802F086FD5CE71B49A2E71B4907
:10050000B2E700BF341000200C140020DC150020DE
:1005100074120020DD150020D8150020481400209A
:10052000781200204414002074120020AC1E002019
:10053000A44B0200C14B0200CF4B0200E94B02006A
:10054000F74B02000F4C02001C1000201D4C020053
:10055000241000202B4C02002C100020394C0200EB
:1005600008140020474C0200D44B0200FA4B020052
:100570001FB54FF4E131164801F026FA154800F096
:100580006AF85723144A1349144800F0E4FB20B9D1
:1005900013490F4802F03CFDFEE712490C4802F0F7
:1005A00041FD4FF4FA6002F0A5FE40F29B134FF4B8
:1005B0008052CDE9013264230093042202233C21BE
:1005C000064800F08BFC05B05DF804EBFFF706BEB3
:1005D000AC1E002038100020801A06000C140020E9
:1005E000644C0200974C020000207047704749009D
:1005F0000023C161C0F82C327047036801211B6BD6
:10060000184710B403689C6B0123A4465DF8044BA3
:100610006047D0F82C32B3F5807F1FBF5A1CC0F85A
:100620002C22C01880F82C1114BF01200020704724
:100630007047C0F830127047C0F834127047D0F8D5
:1006400028312BB1D0F82431184490F8200070479D
:100650004FF0FF30704738B503685B6A044698472F
:10066000A82009F03BF994F9192094F918100546CF
:1006700005F036FB656138BD0B6803604B6843606D
:100680008B688360704738B5D0F82C3214461A4412
:10069000B2F5807F88BFC3F58074054600F596707B
:1006A0002246184410F096FED5F82C322344C5F8A3
:1006B0002C32204638BD38B5044640690D4608B195
:1006C00005F00AFA206920B12946BDE8384005F056
:1006D0005DBB38BD10B5044608F0C0FBD4F8284116
:1006E00008F0D2FB204610BD10B5044608F0B6FB5A
:1006F000D4F82831BBB1D4F82831A3B1D4F82431CF
:10070000234493F82000D4F824310133DBB2C4F839
:100710002431D4F82831013BC4F82831044608F0CC
:10072000B3FB204610BD4FF0FF34F8E710B5044688
:10073000406920B10368DB6898470023636123693F
:100740009BB1D4F8380209F074FBD4F8380209F0F0
:1007500091FBD4F8380210B103685B6898474821D0
:10076000206909F0D1F80023236110BD1FB50246AE
:10077000D0F82C32D469406981F0010100913BB975
:10078000012303AA214605F0D8F9C0B204B010BD78
:1007900002F59672214605F0B1F9002814BF022037
:1007A0000020F3E770B5C2B0B2F5807F83F001039B
:1007B00028BF4FF48072009302AE044615461346DC
:1007C00049003246406905F0B8F9C8B9A84218D0C6
:1007D000D4F82831B3F5807F10D0D4F82031325CC2
:1007E000234483F82020D4F820310133DBB2C4F84D
:1007F0002031D4F828310133C4F828310130E5E73D
:100800000025284642B070BD70B50446C0B0002532
:10081000206905F0C4FA0328FAD8DFE800F05F0287
:100820001E1ED4F8343203B19847D4F82C32002B72
:10083000EED008F013FB94F82C6204F59671324662
:10084000684610F0C7FDC4F82C5208F01DFB324674
:100850006946206905F0A7FADAE7F02269462069BF
:1008600005F09FFA064608F0F9FAC4F82051002274
:10087000C4F82451C4F82851B2421DDAD4F8283102
:10088000B3F5807F18D0D4F82831B3F5807F11D02C
:10089000D4F820311DF80210234483F82010D4F836
:1008A00020310133DBB2C4F82031D4F828310133D0
:1008B000C4F828310132DFE708F0E6FA2368204661
:1008C0001B6998470028A3DDD4F83062002E9FD022
:1008D000236820461B699847B04799E702F01AFD44
:1008E00096E70022C2607047C3680BB19B68184747
:1008F0007047000070B54FF47A730025C0E90153CA
:10090000114B03600446C0E90455C8B2164602F014
:10091000C5FC2076F0B202F0C1FC4FF48072607624
:10092000294604F1200010F053FEC4F82051C4F809
:100930002C52C4F82451C4F83052C4F82851C4F8D9
:100940003452204670BD00BFC84C020038B50025A7
:100950004FF47A730446C0E901530D4B0360C0E9BC
:1009600004550176427629464FF48072203010F00B
:100970002FFEC4F82051C4F82C52C4F82451C4F8F6
:100980003052C4F82851C4F83452204638BD00BF54
:10099000C84C020010B500210446FFF7A2FF204614
:1009A00010BD10B50446FFF79FFF204610BD10B4E0
:1009B000D0E9003409686210E40701EB020048BF87
:1009C0008A585DF8044B48BFD358184708B501460C
:1009D0000430FFF7ECFF08BD034AC260034607C9B5
:1009E00083E80700704700BFA84C020010B586B02E
:1009F00004460391684606A980E80C0001E90C0052
:100A0000204603A9FFF7E8FF204606B010BD37B522
:100A10006C4684E80C0094E80C000546FFF7E6FFFE
:100A2000284603B030BD000070B5036888B05B6A2B
:100A300005460E469847482008F050FF95F91920C2
:100A400095F91810044605F087F971002C612046CD
:100A500005F09EF9BC2008F041FF164B044640F813
:100A6000043BFFF797FF002104F1400009F05CF917
:100A700004F1540009F0F6F80F4B009320460023D0
:100A80004FF40062182109F0C9F90C4B02930023BE
:100A9000039302AB0CCB294604A8C5F83842FFF7F4
:100AA000B6FF04A9204609F021FA04A8FFF779FF50
:100AB00008B070BD10670200B44C020009080100C4
:100AC00008B5FFF783FF08BD08B5FFF7F9FF08BDBC
:100AD00010B5122002F0E2FB0446132002F0DEFB08
:100AE000214602460848FFF731FF1E2002F0D6FBE0
:100AF00004461F2002F0D2FB21460246BDE810400A
:100B00000248FFF723BF00BFE01500201C1800209B
:100B1000704790F8383090F839001B1ADBB258B2A1
:100B20000028BCBF043358B2C0B2704708B50246B3
:100B3000FFF7EFFF30B192F83930013303F00303D0
:100B400082F8393008BD70B5044600680368DB6A76
:100B500016460D4698472068036831461B6898473B
:100B60002068036800211B6B9847206803680122F6
:100B7000DB6B29469847206803681B69984720B1BA
:100B8000206803685B699847C0B270BD0422017990
:100B9000FFF7D9BF06220179FFF7D5BF2DE9F7434B
:100BA0000446FFF7F7FF07462046FFF7EFFF8742AF
:100BB00000F09280C71B2068667903684FF05701E8
:100BC000DB6A48BF203798472068036807211B6805
:100BD0009847206803685B6B98477E4306EB4606A0
:100BE0004FF020084FF00009002E76DD202EC8BF00
:100BF00065792068C2BF05EB450598FBF5F35D43B9
:100C00000368D8BF3546DB6B2A465721761B9847C9
:100C1000002DE9DD94F8383020688DF80790013315
:100C200003F0030384F8383003685B6998478DF854
:100C30000600206803685B6998478DF80500206806
:100C400003685B69984794F838308DF80400019A7E
:100C50000233C2F3110244F823206379012B19D91E
:100C6000206803685B6998478DF806002068036870
:100C70005B6998478DF80500206803685B699847B1
:100C800094F838308DF80400019A0633C2F311024B
:100C900044F823206379022B19D9206803685B6923
:100CA00098478DF80600206803685B6998478DF8BF
:100CB0000500206803685B69984794F838308DF820
:100CC0000400019A0A33C2F3110244F82320637925
:100CD000A3EB83031D449BE70027B8B203B0BDE834
:100CE000F08370B505460E4602F0F2FA044602F0B3
:100CF000EFFA001BB04208D82846FFF74FFF012843
:100D000004D0012002F0F6FAF1E7002070BD10B522
:100D1000FA210446FFF7E5FF20B194F8383002339A
:100D200054F8230010BD10B5FA210446FFF7D9FF8F
:100D300020B194F83830063354F8230010BDFF2258
:100D40000179FFF700BF10B5FE2201790446FFF7D5
:100D5000FAFEA07110BD70B504461D4621600B68F7
:100D60000846DB69164698472068036831469B6A47
:100D7000984725712046FFF7E2FF152804D1204649
:100D8000FFF7E1FF012070BD0020FCE770B50446CD
:100D900000681D460368DB6A1646984720680368AA
:100DA00031461B6898472068036829461A689047AF
:100DB00020680368BDE870405B6B18470B460C2247
:100DC0000179FFF7E3BF0B460D220179FFF7DEBF84
:100DD0000B460E220179FFF7D9BF0B46102201798D
:100DE000FFF7D4BF10B50446017900230422FFF7B2
:100DF000CDFF2179204600230522FFF7C7FF217987
:100E0000204600230622BDE81040FFF7BFBF2DE9B2
:100E1000F0410E4615460A46017904461F46FFF783
:100E200092FE284047EA0003324621792046BDE879
:100E3000F041FFF7ABBF38B5BF224023092104467C
:100E4000FFF7E5FF02F044FA054602F041FA401BC5
:100E500063280AD8092221792046FFF774FE430649
:100E600003D5012002F046FAEFE738BD0B46F82221
:100E70000921FFF7CCBF0B469F220A21FFF7C7BF0E
:100E80000B46E3220A21FFF7C2BF0B46FC220A21D0
:100E9000FFF7BDBF0B461F220821FFF7B8BF102385
:100EA000EF220821FFF7B3BF01391346032914D8F5
:100EB000DFE801F002060B0EF8221121FFF7A7BFB1
:100EC0001B0103F0F0038F22F7E7F8221221F5E768
:100ED0001B0103F0F0038F22F8E770472DE9F0477C
:100EE0001646044688461F46DDE90859DDF828A065
:100EF000FFF7A1FF012E4AD100212046FFF7CAFFCC
:100F00002046FFF7CCFF032F55D107212046FFF7DE
:100F1000ADFFBAF5805F677152DA00212046FFF716
:100F2000AAFF632D59DC00212046FFF7A9FFB9F184
:100F3000750F72DC00212046FFF7A7FF41462046CF
:100F4000FFF73CFF41462046FFF73DFF4146204664
:100F5000FFF73EFF41462046FFF73FFF01221146C3
:100F60002046FFF7A1FF012F0CD920238F2211214A
:100F70002046FFF74CFF022F04D0032211462046E3
:100F8000FFF792FF2046BDE8F047FFF72BBF022E88
:100F900001D12021B1E7042E01D14021ADE7082E77
:100FA00001D16021A9E7102E01D18021A5E7202ED3
:100FB000F3D1A021A1E7022F0CBF03210221A5E755
:100FC000BAF5005F01DA2021A8E7BAF5804F01DA0F
:100FD0004021A3E7A1D16021A0E7C72D01DC0421B6
:100FE000A2E7B5F5C87F01DA08219DE7B5F5487F8E
:100FF00001DA0C2198E7B5F57A7F01DA102193E741
:10100000B5F5C86F01DA14218EE7B5F5486F01DA3E
:10101000182189E787D11C2186E7B9F1D60F01DCB9
:10102000012188E7B9F5CD7F01DC022183E740F299
:101030009B1399457FF47EAF03217CE72DE9F041B6
:1010400000240C6003F1FF3E0124A64527DD069D28
:1010500052F82470AF424FEA840604F101051CDD0A
:10106000164456F8046CB74217DD2E469E42A6EB96
:10107000040C354652F8268003D0474506F1010698
:10108000F4D0474509DD0E680E2E06DC751C0D6098
:101090000CF1010540F8264025442C46D5E7BDE873
:1010A000F081F0B5012304468B420FDA54F8046F47
:1010B0001A46254655F8047CB74203DD013A45F847
:1010C0000479F7D140F822600133EDE7F0BD2DE956
:1010D000F04394460D460123634516DA55F8047F24
:1010E0001C4600EB870E2E46DEF8002056F8049CC6
:1010F000904650F82920904503DD013C46F80499BC
:10110000F2D141F824700133E6E7BDE8F0832DE920
:10111000F0410446984610460D460A682146FFF7FE
:10112000D6FF4FF0FF32C8F1000C296891421CDD58
:10113000571C38462F60814215D0531C18BF54F8F5
:10114000223054F8206008BF1346F61A464501DCE9
:10115000B44506DD2E68731C2B6054F8203044F82B
:1011600026300130E7E73A46DFE72046BDE8F041A8
:10117000FFF797BFF7B5089F00970C46FFF75EFF94
:10118000099BFFF7C4FF23680A9A9A42ACBF234623
:101190000AAB1B68236003B0F0BD00002DE9F04FDF
:1011A0009FB0DDE929A893460022069307460D4625
:1011B0001346AA4204DA57F8221001320B44F8E72A
:1011C000854EB3FBF5F20023AB4206DA57F8231045
:1011D000511A46F823100133F6E77F4A042402F53A
:1011E000C071D2E90030034490680344D0680344DE
:1011F00093FBF4F342F8043B9142F2D100231A46E8
:1012000056F822100132642A0B44F9D193FBF2F311
:101210003C2BA8BF3C231E2B4FF00002B8BF1E235F
:101220000FAC914644F8229001320F2AFAD1029273
:101230000422CDE9003209A96423674A2046FFF75A
:1012400099FF099B012B26DD0EAA02EB830C0022DD
:1012500054F8041F54F8040CA445A1EB00010A44FF
:10126000F6D1591E92FBF1F240F2DC5191FBF2F201
:10127000CAF80020012288F8002058490022AA421A
:101280000FDA57F8220046F822005BF8220041F8F6
:1012900022000132F3E7524ACAF8002088F8009091
:1012A000EBE70022CDE90A22CDE90C220E920DF1E6
:1012B0003C0B934230DC0025013BDFF81CC1DFF81A
:1012C0001CE105952E462C460793079B059A9342F1
:1012D0005DDD5BF8048F13465BF8042CA8EB020974
:1012E0000133B9F1030F0593EFDD4FF07F43104653
:1012F000194680451BDD87005CF820A057F80E706A
:101300009A45D4BF9A4605468F42D4BF0F4606463B
:10131000534601303946ECE75BF82210642904DDBE
:10132000069A2F4B136000234DE00132C1E75CF8B1
:1013300022705CF82800A0EB070AA81A00FB0AF04C
:1013400090FBF9F038445CF826703F1A7943C911D4
:101350000029BADD042CB8DC5EF822705EF82800A3
:10136000B21AC01B42435EF8260092FBF9F2174402
:10137000C71B7B43DB11A8D01EAA02EB84086422A2
:101380005343013493FBF1F148F8501C9DE721468B
:101390000AA86410FFF785FE012C1EAA4FEA8403F9
:1013A00016DD02EB840454F8502C54F8543C1344DA
:1013B000022293FBF2F3DA1EB42AB1D8094AD35CB5
:1013C000069A13600123289A13701FB0BDE8F08FAE
:1013D000134453F8503CEEE7581A0020E81B002055
:1013E00019FCFFFF184D020030B5A1F110040025D3
:1013F00000F00F02D3B2092ACCBF373330338B73DE
:10140000CD7302398C424FEA1010F1D130BD222049
:101410007047000030B5012185B0192001F0C6FFEA
:101420000121192002F006F84FF080430022C3F892
:101430005C2503F588334FF48032C3F8482301213B
:10144000C3F80823212001F0B1FF0121202001F081
:10145000ADFF0121212001F0EDFF0A2001F04AFF3C
:101460000121202001F0E6FF212001F017FF1F28B5
:1014700086BF00F01F00154B4FF0A04300F5E07051
:1014800040F2033243F82020114B01221A60114A26
:101490001368002BFCD0104B0024C3F80045C3F8A0
:1014A00000450E4B0FCB6D4685E80F0023462046C6
:1014B0004FF0FF3155F823200133042BC2F800050B
:1014C000C2F86015F6D105B030BD00BF0003005072
:1014D000042000404421004000200040D04D020084
:1014E00038B54FF0805504462146D5F8A800FFF7DF
:1014F0007BFFD5F8A40004F11001FFF775FF202051
:1015000038BD000072B64FF08043B022C3F81C25EE
:10151000BFF34F8F0549064BCA6802F4E0621343DC
:10152000CB60BFF34F8F00BFFDE700BF00ED00E0D1
:101530000400FA0570B590F8303105461446F3B949
:101540000368DB69984704F47063B3F5407F04F0E7
:10155000F0030CBF0721082104F00F02302B0CBF51
:1015600002230123012A08D0901E42424241A86969
:10157000BDE87040006804F0E0BC0222F7E770BDEF
:1015800010B590F8303104462BB9A369186804F0FF
:101590002BFD0028F9D010BD38B590F83051044625
:1015A000A5B983695BB1186848B10368DB689847DF
:1015B000A3691D600421A06908F0A6F9A5610023B4
:1015C000C4F82431C4F82831C4F82C3138BD13B51F
:1015D00090F8303104466BBBA369186804F0C4FC72
:1015E00040B307F03BFCA3691868036801225B69FC
:1015F0000DF107019847D4F82C31B3F5807F16D050
:10160000D4F82C31B3F5807F11D0D4F824319DF873
:101610000720234483F82420D4F824310133DBB29B
:10162000C4F82431D4F82C310133C4F82C3107F03C
:101630002BFCD1E702B010BD08B590F830313BB1BA
:10164000012001F057FE0648BDE8084001F0EBB963
:1016500082691AB11368003318BF0123184608BD08
:101660007425002070B504460D4601F0DCF930B158
:101670002368294620461B6CBDE87040184770BDA2
:10168000A0F5A070EEE7000013B590F830318DF8AA
:10169000071004462BB1C9B20B48FFF7E3FF02B0B5
:1016A00010BDA369186804F09FFC0028F9D0A36955
:1016B0001868036801221B690DF107019847013082
:1016C00018BF0120EBE700BF742500202DE9F04191
:1016D00007468846164601F0A6F970B10024A642D6
:1016E0000CD9351B402D28BF402508EB04012A46A4
:1016F000384600F0F1FE2C44F1E704462046BDE8F0
:10170000F081A0F5A070E1E770B590F830310546A2
:101710000E4614462BB11048FFF7D8FF044620466A
:1017200070BDAB69186804F05FFC0028F9D0AB69A4
:101730001868D0F8083101211B6B00F584709847B8
:10174000AB691868036822461B6931469847013027
:1017500008BF0024E3E700BF7425002030B504462D
:10176000C3B001F04DF9D4F85832C3F580739842F4
:101770000546C4BFD4F85852C5F580752A4601AB5A
:1017800002A9204600F092FF019902AB6D1A0022D7
:101790001D44D4F85832B3F5807F19D08A4217D04F
:1017A000D4F85832B3F5807F10D0D4F85032A85C0A
:1017B000234483F85001D4F850320133DBB2C4F82B
:1017C0005032D4F858320133C4F858320132E0E7CD
:1017D00043B030BD38B5044600F07EFB2046FFF72D
:1017E000BDFFD4F85852204600F07EFB284638BD95
:1017F000A0F5A070EEE7000010B590F83031044677
:101800002BB10648FFF7E6FF0446204610BD07F05F
:1018100025FBD4F82C4107F037FBF6E774250020B0
:1018200038B5044600F058FB2046FFF797FFD4F880
:1018300058324BB1D4F85432234493F850512046D7
:1018400000F052FB284638BD4FF0FF35F7E7A0F512
:10185000A070E5E710B590F8303104462BB10B4885
:10186000FFF7DEFF0446204610BD07F0F7FAD4F874
:101870002C313BB1D4F82801044494F8244007F0FB
:1018800003FBF0E74FF0FF34F9E700BF74250020B9
:1018900038B5044600F020FB2046FFF75FFFD4F880
:1018A0005832A3B1D4F85432234493F85051D4F8A9
:1018B00054320133DBB2C4F85432D4F85832013B0D
:1018C000C4F85832204600F00FFB284638BD4FF0D0
:1018D000FF35F7E7A0F5A070DAE7000010B590F843
:1018E000303104462BB11148FFF7D2FF04462046A1
:1018F00010BD07F0B3FAD4F82C319BB1D4F82831DD
:10190000234493F82400D4F828310133DBB2C4F81F
:101910002831D4F82C31013BC4F82C31044607F0AF
:10192000B3FAE4E74FF0FF34F9E700BF7425002075
:1019300008B54FF4807200210FF04AFE0022C0F873
:101940000021C0F80421C0F8082108BD10B4D0E976
:10195000003409686210E40701EB020048BF8A58AE
:101960005DF8044B48BFD358184708B5014604300A
:10197000FFF7ECFF08BD0000034AC260034607C939
:1019800083E80700704700BFE04D020010B586B045
:1019900004460391684606A980E80C0001E90C00A2
:1019A000204603A9FFF7E8FF204606B010BD37B573
:1019B0006C4684E80C0094E80C000546FFF7E6FF4F
:1019C000284603B030BD000070B590F8303186B0C5
:1019D00004460D46002B37D1866926B9042007F04E
:1019E0007DFFA0610660A369186878BB4FF486701C
:1019F00007F074FF2B4694F9212094F92010064635
:101A000004F0FEFDA3691E6094F92220531C06D049
:101A1000A06994F923300068032104F001FEA36952
:101A20001D688DB10B4B0093002601966B460CCBC5
:101A3000214602A8FFF7BBFF2846324602A904F060
:101A400057FB02A8FEF7ADFF06B070BD294604F0B3
:101A500060FAD9E7CF15010008B5FFF786FF08BD8A
:101A600008B5FFF7F9FF08BD2DE9F047194C1A4FEB
:101A7000276000254FF47A78C4E90158202604F144
:101A80002400C4E90565E5614FF00109FFF750FF47
:101A9000284684F8309101F001FC8246484601F066
:101AA000FDFB0E4CFF2384F82100C4E9015804F12A
:101AB00024002760C4E90565E56184F820A084F866
:101AC000223084F82330FFF733FF84F83051BDE82B
:101AD000F08700BFAC1E0020F44D0200781D0020EE
:101AE000002070477047704710B5D0F88C452CB176
:101AF00023682046DB6A9847A468F8E710BD38B52C
:101B0000D0F88C450D4634B123682046DB68294661
:101B10009847A468F7E738BD00487047B44E020004
:101B200010B5054B0360044605F0CBFF204606F0D8
:101B3000D9F8204610BD00BF344E020010B504464F
:101B4000FFF7EEFF20464FF4B26107F0DDFE2046BE
:101B500010BDF7B5D0F88C4505460E460023A4B15C
:101B6000236831461F690DF1030201AB2046B847D7
:101B70009DF803100429034605D0019A284605F074
:101B8000AFFA03B0F0BDA468E9E7019A9DF803102D
:101B9000F4E770B505460E4622B10021BDE870405D
:101BA00005F0AAB8D0F88C455CB1236800225B69C7
:101BB00031462046984710B101212846EEE7A46837
:101BC000F2E72146F9E770B5D0F88C450E46054698
:101BD00000213CB12368314620469B699847A468A0
:101BE0000146F6E72846BDE8704005F079B9F8B53A
:101BF000D0F88C4505460E4617463CB12368204672
:101C0000DB693A4631469847A468F6E72846012141
:101C1000BDE8F84005F0C2B970B5002186B00446B1
:101C200005F0A9FB0023ADF8063023898DF81030AC
:101C30001B0AA188E2888DF811304FF4897540F2B3
:101C40000123ADF80450ADF81230022540F2031321
:101C5000EF268DF807508DF809508DF80C100125EE
:101C6000090A8DF80E20ADF81430120A04F10A03A7
:101C70008DF808608DF80A508DF80B008DF80D1066
:101C80008DF80F2001AD05AE1C462A4603CAB242AC
:101C900018605960154603F10803F6D112881A80BE
:101CA000204606B070BDF8B5002406460D4627460E
:101CB000304610F065F8A04207D9335D05F81430BE
:101CC00005EB440301345F70F2E7400000F0FE00D2
:101CD000F8BD38B5D0F88C55044635B12B68284688
:101CE0005B6A984710B9AD68F7E7284640F20233BF
:101CF000A4F8483504F24A51FFF7D5FF94F8483567
:101D0000184484F8480504F5A96038BD40F2023350
:101D100010B500F20A510446A0F808350548FFF74F
:101D2000C2FF94F80835184484F8080504F5A1604A
:101D300010BD00BF204E020040F2023310B5044631
:101D4000A0F8C83400F2CA40FFF7CAFB94F8C834C0
:101D5000184484F8C80404F5996010BD2DE9FF41CA
:101D600000238DF80A3090F888351B4A8DF808302A
:101D7000012301928DF809303222C0238DF80B30F7
:101D80008DF80C2001AB044600F54E7803CBC4F867
:101D90003803C8F8041088F80820D4F88C650925A1
:101DA0008EB1336800219B6830469847478805F517
:101DB0004E73093F00F109013A46E0180FF00AFBA3
:101DC0003D44B668ECE784F83A5340462D1284F857
:101DD0003B5304B0BDE8F0810902FFFF73B5044630
:101DE0000D46164608F0D4FA4FF48073009301466E
:101DF00033462A46204605F031FF024B2360204639
:101E000002B070BD344E020010B5D0F88C350446D7
:101E1000A3B9C0F88C1594F888350B7194F88835FF
:101E20004A79134484F888350B6808469B6A9847BA
:101E3000238918442081012010BD13469A68002A86
:101E4000FBD19960E7E71FB5044605F08FFA01461C
:101E5000684604F0ADFC4021684604F01BFDD4F850
:101E60008C4534B1236820461B6A69469847A468AC
:101E7000F7E7684604F0A3FC04B010BD10B50446B3
:101E8000FFF7E1FF2046BDE8104005F056BA00001C
:101E900010B50D4C2378BFF35B8FDB0712D42046BF
:101EA00007F024FB70B148F25A0242F24131074870
:101EB000FFF794FF204607F03BFB054A054903481E
:101EC00007F001FB014810BDE01F0020E41F0020C7
:101ED00000020020211B010010B5FFF7D9FF0368A5
:101EE000BDE810405B6F184710B5FFF7D1FF0368DE
:101EF000BDE810409B6F184710B5FFF7C9FF036896
:101F0000BDE81040DB6F184704F0D6BD04F0EABD11
:101F100004F0C2BD704770477047436A93F8780079
:101F20007047D0F82401704701207047004870477F
:101F30001C5002002DE9F04F044697B00F464B228B
:101F4000002103A80FF044FBD4F82431267994F83B
:101F50000EA094F80C90002B06F10105637B019311
:101F600014BF05200020EDB2002F40F0978040F212
:101F70000923ADF80C304FF48173ADF81030802395
:101F80008DF8133032238DF8143008238DF8153076
:101F90000B2301218DF816308DF8250040F2022325
:101FA00042F205404FF0240C4FF0090E04274B225B
:101FB000ADF818308DF8211002238DF82410ADF8FB
:101FC00026004FF0100805208DF82A108DF82D10EE
:101FD0008DF82F104FF0030B06218DF80E208DF891
:101FE00017608DF81A308DF81DE08DF81F608DF8A0
:101FF00022308DF823308DF82B008DF82CC08DF811
:1020000031C08DF832308DF833108DF834008DF8F2
:1020100035C08DF81E708DF829808DF82EB08DF8A2
:1020200030708DF8361007218DF839108DF8491071
:1020300044F20201ADF84C1040F20751ADF85010D7
:102040001D349DF804108DF837608DF838508DF8E8
:102050003A008DF842508DF84A008DF852108DF8F4
:10206000533044F20306402340F6022503A92046DC
:102070008DF83BA0ADF83C608DF83F808DF840E0D6
:102080008DF84170ADF844508DF84B908DF8543078
:102090000FF0A0F9204617B0BDE8F08F0020FAE756
:1020A00038B505460A4B45F8D03B0446FFF7F0FE2D
:1020B00005F007FD284604F087FC04F17C0004F0DD
:1020C00083FC04F1700004F07FFC204638BD00BFA3
:1020D000DC4F020010B50446FFF7E2FF20464FF444
:1020E000947107F011FC204610BDFFF705BF0000FA
:1020F00010B5034B0360044604F022FB204610BDDC
:10210000FC4E020010B50446FFF7F2FF20462821DE
:1021100007F0FAFB204610BD10B5034B03600446E0
:1021200004F00EFB204610BDCC4E020010B5044654
:10213000FFF7F2FF2046342107F0E6FB204610BDF2
:1021400010B5034B0360044604F0FAFA204610BDB4
:10215000E44E020010B50446FFF7F2FF2046382196
:1021600007F0D2FB204610BD38B51C4B0D46196850
:10217000C0F80F1099889B7943750446A0F8131096
:1021800040220221284604F07BFB402220730221DA
:10219000284604F07AFB402260730321284604F0AD
:1021A0006FFBA073284604F00BFB20B9AF220C494B
:1021B0000C4806F0A3FD002304F18502C4E9322394
:1021C00004F1D90284F8783084F8843084F8D83067
:1021D000C4F81C21C4F8203138BD00BF184F0200DC
:1021E000B64F0200C14F02002DE9F34104460E46EE
:1021F0001546FFF781FEF28823799A4237D1002DE8
:1022000035D17778012F2ED1F378202B27D1328941
:10221000072A24D104F10F0804F116052946404687
:102220000FF0A6F8D0B1D4F81630C4F80F30207CE7
:10223000E17B638BA4F8133001EB0021607CE57C2B
:10224000237F009501EB00412568A07C637501EBBD
:102250000061237D627D6D6B2046A8473D46F37883
:10226000212B08BF0125284602B0BDE8F0810025DA
:10227000F9E710B50446FFF73FFEFFF709FE217BA3
:1022800005F0BCFA04F18503C4F8C8300023C4F893
:10229000CC3084F8843004F17C0004F04AFB94F8DC
:1022A00084302BB923682046DB6BBDE8104018470B
:1022B00010BD000070B50446FFF71EFED4F8205193
:1022C0002DB140F2DD120F490F4806F017FD04F161
:1022D000D903C4F81C31FFF7DBFD617B05F0ECF995
:1022E00084F8D850C4F8200104F1D00004F021FB98
:1022F00094F8D8302BB9236820469B6BBDE870401A
:10230000184770BDB64F0200244F020038B50223B3
:102310004371002383600C4B044640F8703B154624
:1023200004F0FAFA04F17C0004F0F6FA04F1D000AB
:1023300004F0F2FAC4F82451FFF7AAFD2146FFF792
:1023400063FD204638BD00BFDC4F020070B5044677
:102350000D46FFF7D1FD84F87850002D3ED194F85A
:10236000843033B1FFF794FD217B05F01FF884F82A
:10237000845004F1850304F17C0600253046C4F83E
:10238000C830C4F8CC5004F0D4FA304604F0CAFA8D
:1023900028B9154915484FF4A27206F0AFFC94F81D
:1023A000D83033B1FFF774FD217B04F0FFFF84F8D0
:1023B000D85004F1D903C4F81C3104F1D00500232E
:1023C0002846C4F8203104F0B4FA284604F0AAFAEA
:1023D00020B94FF4A77204490548DEE704F1700004
:1023E000BDE8704004F0A5BAB64F0200324F0200BB
:1023F000434F020010B50446FFF77EFD2046002142
:10240000BDE81040FFF7A2BF38B50D460446FFF700
:1024100073FD042D05D020460021BDE83840FFF7AC
:1024200095BF38BDF8B5164604460D461F46FFF762
:1024300063FD04233370EA8823799A4225D16978B1
:10244000012922D1EA78212A08D0222A0BD0202A79
:102450004FF000001BD13070163401E031700F34A2
:102460003C600720F8BDAB8813F0010308BF194694
:102470002046FFF76BFFAB8803F00103E366AB88F0
:1024800003F00203A366022333700020EAE703236C
:102490003370E7E710B58AB00446FFF71DFD6846C4
:1024A00004F03EF90A4B0093694604F17000099468
:1024B00004F057FA2046FFF717FD064B00211A6873
:1024C000684604F0F3F86846FFF712FE0AB010BD44
:1024D000FC4E0200204F020070B58EB01546044637
:1024E0000E46FFF7F9FC01A804F01AF90E4B0C9503
:1024F00001A9002504F17C000193CDE90A468DF87D
:10250000345004F02EFA2046FFF7EEFC074B294624
:102510001A6801A804F0CAF801A89DF83440FFF732
:10252000FBFD20460EB070BDCC4E0200204F0200D5
:1025300010B50446FFF7E0FC94F884307BB9D4F87A
:10254000CC3063B1FFF7A4FCD4F8CC30217B04F18C
:10255000850205F0F1F810B1012384F8843010BD34
:102560002DE9F8431E460446894690469DF82070A2
:10257000FFF7B2FC0023336094F87830E3B194F8AD
:102580008430CBB9D4F8CC50C5F14005454528BFBF
:102590004546B8F1000F05D02A464946D4F8C80090
:1025A0000EF018FFD4F8CC302B44C4F8CC30356092
:1025B00017B12046FFF7BCFF2046BDE8F843FFF700
:1025C00093BCF0B50446406A90F8785085B0012677
:1025D0002DB984F830503546284605B0F0BD04AB1F
:1025E000002743F8047DD4E90A120096FFF7B8FFEC
:1025F0000399E36AA26A5B1A0A44E362A26213B90E
:1026000084F83060E8E7606AFFF792FF3D46E3E751
:102610002DE9F0431C4691B0904606468946FFF7E7
:102620005BFC002C08BF01AC4FF00005256002A840
:102630000CBF0127002704F073F8104B029302A986
:1026400006F1D000CDE90D84CDE90B698DF83C7021
:102650008DF83D5004F085F93046FFF745FC084BF6
:1026600029461A6802A804F021F802A89DF83D4006
:10267000FFF766FD204611B0BDE8F083E44E02008E
:10268000204F020010B5D0F8203104466BB990F805
:10269000D83053B9FFF7FCFB402304F1D902617B2A
:1026A00004F0ACFF012384F8D83010BD70B51E468D
:1026B00004460023336094F878300846EBB194F870
:1026C000D830D3B9D4F82051D4F81C11954228BF82
:1026D00015462A460EF07EFE3560D4F81C31D4F83B
:1026E00020212B44551BC4F81C31C4F8205125B9B6
:1026F0002046BDE87040FFF7C5BF70BD37B5044642
:10270000406A90F878502DB984F835500125284654
:1027100003B030BD02AB002243F8042DD4E90A1205
:10272000FFF7C4FF0199A26A0A44A262226B1368F0
:102730000B441360E36A01995B1A94F83410E36266
:1027400009B9126802B91BB9012384F83530DEE7F4
:10275000606AFFF797FF0025D9E710B50446FEF73A
:1027600019F9204610BD10B4D0E900340968621090
:10277000E40701EB020048BF8A585DF8044B48BFEC
:10278000D358184708B501460430FFF7ECFF08BDE1
:10279000034AC260034607C983E80700704700BFC9
:1027A0000C4F020010B586B004460391684606A996
:1027B00080E80C0001E90C00204603A9FFF7E8FFC0
:1027C000204606B010BD37B56C4684E80C0094E88E
:1027D0000C000546FFF7E6FF284603B030BD0000B9
:1027E0002DE9F0418AB00546FFF786FBFFF750FB65
:1027F00006ACAF7B064600212046FFF7AEFF394608
:10280000032340220094304605F0BEF92046FEF72F
:10281000C8F8FFF73DFB00261D4B95F80C8002938E
:10282000039602AB07460CCB29462046FFF7CBFFA9
:102830004146022340220094384605F0A5F920467F
:10284000FEF7AFF8FFF724FB124B95F80D80CDE9AA
:10285000043604AB07460CCB29462046FFF7B3FFEE
:102860004146022340220094384605F08DF9204667
:10287000FEF797F8FFF70CFB4023D5F81C21697B86
:1028800004F0BCFE012085F8D8000AB0BDE8F08154
:1028900073220100B522010008B5FFF773FF08BDE0
:1028A00008B5FFF7F9FF08BD6FF015007047002964
:1028B0000CBF6FF0180000207047012070476FF0C8
:1028C000150070476FF01500704711207047704772
:1028D0007047704703689B6C1847A0F5A070F9E734
:1028E000704770477047704710B50446012000F0EC
:1028F00001FD94F8780010BDA0F5A070F4E7000089
:1029000038B54FF0FF320123FF210B480B4D07F084
:1029100083F900F0DDFC044695F878301BB1012006
:1029200000F0E8FCF8E700F0D3FC001BC728F6D95C
:10293000BDE83840FEF7E6BD2C28002074250020B5
:1029400007B502AB012243F8041D1946FFF7C4FD89
:1029500018B1019803B05DF804FB4FF0FF30F9E7C0
:10296000A0F59470FFF7ECBF07B502A9002301F8AA
:10297000013D0122FFF74CFE20B19DF8070003B096
:102980005DF804FB4FF0FF30F9E7A0F59470FFF716
:10299000EBBF2DE9F8430446884617461E46089DBE
:1029A000FFF7AAFAD4F87092B9F1000F04D02B46C1
:1029B000324639464046C847C4F86082C4F864725B
:1029C000C4F86862C4F86C52BDE8F883B0F5966F3D
:1029D00003D10121014807F001B970472C280020DC
:1029E000006870470C30704708B5FFF7FBFF002305
:1029F000036008BDCB68C3600BB15B6818477047C4
:102A000038B50546FFF768FA95F8D8304BB9D5F8D0
:102A10002041402C28BF40242846FFF765FA204675
:102A200038BD0024F8E790F878007047F7B5044601
:102A30001F4615460E4607F0ABFCBDF82430019347
:102A4000BDF8203000932A463B4601462046FFF75A
:102A50005DFC002104F5947005F002FE4FF47A73DA
:102A6000C4F84831194B236003F178020025C4F8FB
:102A7000282103F1D802E833C4F84451C4F82C21CA
:102A80002946C4F840314FF4807204F5A8700EF066
:102A90009FFD04F52D77C4F85052C4F85452C4F881
:102AA000585204F51D7528461035FDF773FFBD42D9
:102AB000F9D10023C4F8B432C4F8703216B12046FC
:102AC000FFF7E8FC204603B0F0BD00BFF050020065
:102AD000114B03F1780270B50360C0F8282103F1AF
:102AE000D802E8330446C0F82C21C0F8403100F584
:102AF0001D7600F52D75AE4204D0103D2846FDF739
:102B000050FFF8E704F5947005F0D4FD2046FFF778
:102B1000C7FA204670BD00BFF0500200A0F59470C7
:102B2000FFF7D6BFA0F59670FFF7D2BF10B50446E9
:102B3000FFF7CEFF20464FF42E7106F0E5FE20464B
:102B400010BDA0F59670FFF7F1BFA0F59470FFF7E8
:102B5000EDBF884238B5044606D00D46FDF7C4FEE9
:102B600029462046FFF746FF204638BD08B5FFF747
:102B700039FF0068003018BF012008BD10B50446B9
:102B8000FFF7F4FF28B940F202220649064806F092
:102B9000B5F8E068FFF724FF03462046BDE8104083
:102BA000184700BFD0500200DB500200F8B50646BF
:102BB000FFF7A2F906F51D740025D6F8B432AB4232
:102BC0000AD92046FFF7D2FF2746103420B13846F5
:102BD000FFF7D4FF0135F0E7F8BD0000044BC360F8
:102BE00003460A6843F8042B002242605A6070478B
:102BF0004050020013B50446019121B9FFF7F4FEDD
:102C0000204602B010BD01A9FFF7E8FFF8E710B4B5
:102C1000D0E9003409686210E40701EB020048BF04
:102C20008A585DF8044B48BFD358184708B5014689
:102C30000430FFF7ECFF08BD034AC260034607C932
:102C400083E80700704700BF3450020010B586B01B
:102C500004460391684606A980E80C0001E90C00CF
:102C6000204603A9FFF7E8FF204606B010BD37B5A0
:102C70006C4684E80C0094E80C000546FFF7E6FF7C
:102C8000284603B030BD000030B5044689B0FFF7D8
:102C900023F92A4BC4F870322046FFF725F9284B58
:102CA00002930023039302AB0CCB214604A8FFF749
:102CB000DEFF2046FFF710F9D4F8B402032809D844
:102CC000431C04EB0010C4F8B43204A900F51D70D5
:102CD000FFF73FFF2046FFF707F904A8FDF761FE65
:102CE000BC2006F0FBFD174B054640F8043BFDF702
:102CF00051FE002105F1400007F016F805F15400DF
:102D000006F0B0FF104B00934FF48072002328466A
:102D1000182107F083F8C4F85C520C4904A8FFF7A7
:102D200069FF04A9284607F0E1F804A8FDF739FE79
:102D30002046FEF713FD09B030BD00BFCD290100CC
:102D40005D170100106702004C50020001290100CC
:102D5000A0F5A070FFF798BF0368184708B5FFF704
:102D6000FBFF08BD08B5FFF761FF08BD08B5FFF719
:102D7000F9FF08BD37B50F4C0F4D204606F024FF74
:102D80002A460E49204606F09EFB0D4C42F21203E5
:102D90000122CDE90032002211464FF4F8532046BB
:102DA000FFF744FE07492A46204603B0BDE83040FD
:102DB00006F089BB2C28002000020020E39B0100C4
:102DC00074250020D12A010008B50DF03DF92DE948
:102DD000F04F027D012A85B005460E4640F09080F6
:102DE00000214FF0FF3B04460B465F4694F804C0B9
:102DF00048B2BCF1000F75D194F805C0BCF1000FCA
:102E000070D1B7F1FF3F1BBF01335BB201233846DE
:102E1000934201DD1A4683460131082904F1020478
:102E20005ED1002402EB0B03A1460293CB4502DCEA
:102E3000029B4B4559DC95F8058095F804A04FEAB4
:102E400028170AF00F03FAB25FEA2A1A019208F073
:102E50000F0870D05FFA8AF1BAF1090FD4BF303190
:102E600057313046039300F0CAF8039B0444092B02
:102E700094BF03F1300103F157013046039300F092
:102E8000BEF80444BAF1000F02D1039B03B94FB15D
:102E9000092F019FD4BF30375737F9B2304600F0C1
:102EA000AEF80444B8F1090F94BF08F1300108F1FD
:102EB0005701304600F0A3F8B9F1070F044404D0DD
:102EC0003A21304600F09BF8044409F10109B9F1B8
:102ED000080F05F10205A9D1204605B0BDE8F08F25
:102EE000074683E74FF0FF3096E7CB45EDD1BBF1C6
:102EF000000FE5D13A21304600F081F80444DFE7C5
:102F000000F1100700F11309002417F8011B0A2231
:102F1000304600F0DDF82E218046304600F06FF894
:102F2000B94540440444F0D10A22E97C304600F01F
:102F3000CFF80444D0E7002B99D1A8E710B5054B92
:102F40000360044601751022002104300EF040FB9E
:102F5000204610BD0C52020070B5074D0560837409
:102F600000259DF81030057545608560C5600174C9
:102F70004274C37470BD00BF0C52020007B501213A
:102F80000648FFF7DBFF002300931A461946044862
:102F9000FFF7E2FF03B05DF804FB00BF402800200C
:102FA000582800202DE9F04106460D4601EB0208A5
:102FB0000C464445A4EB050707D0336814F8011B01
:102FC0001B68304698470028F3D13846BDE8F081A9
:102FD00070B5044608460D460EF0D2FE2368024640
:102FE000294620465B68BDE87040184709B1FFF7E5
:102FF000EFBF0846704708B5FFF7F8FF08BD036844
:103000001B6818470149FFF7E3BF00BF4364020094
:1030100038B50546FFF7EAFF04462846FFF7F2FFFA
:10302000204438BD38B50546FFF7E0FF0446284682
:10303000FFF7E8FF204438BD70B58AB00D460AA9F5
:10304000002301F8043D012A98BF0A22B5FBF2F4DF
:1030500002FB1456F3B2092E94BF30333733DBB280
:10306000254601F8013D002CF0D1FFF7BFFF0AB063
:1030700070BD2DE9F04107460E4615462AB9036892
:10308000C9B21B68BDE8F04118470A2A05D10029DA
:1030900005DBBDE8F041FFF7CFBFD2B2F9E72D2144
:1030A000FFF7ADFF2A46044671423846FFF7C4FFDA
:1030B0002044BDE8F08110B42AB903685DF8044BE0
:1030C0001B68C9B21847D2B25DF8044BFFF7B4BF12
:1030D000FFF7F1BF2DE9F84F0A9E0746002E104674
:1030E0001946B8BF022614461D460CF0F9FC28B15B
:1030F0004C493846BDE8F84FFFF76ABF25F0004954
:103100004FF0FF32484B204649460CF0E9FC48B9E5
:103110004FF0FF32444B204649460CF0C3FC08B93F
:103120004249E6E74FF06042414B204629460CF009
:10313000CDFC08B13F49DCE74FF060423E4B2046F2
:1031400029460CF0A5FC0028F4D1002200232046DB
:1031500029460CF09DFCD0B12D213846FFF74FFFDA
:1031600005F1004382461D463449DFF8D8904FF000
:10317000000B00204FF000085FFA8BF3B3420BF115
:10318000010B06DA42464B460CF03AFBF4E7824666
:10319000EAE702460B46204629460CF051F80D4658
:1031A00004460CF0B3FC0A22014680463846FFF77D
:1031B00043FF82449EB340460CF07EF902460B4624
:1031C000204629460CF03AF804460D4638461C497C
:1031D000DFF87090FFF7FCFE4FF00008824416F114
:1031E000FF361CD34B464246204629460CF0DEF9FA
:1031F0000D4604460CF08AFC0A22014683463846F6
:10320000FFF71AFF824458460CF056F902460B4667
:10321000204629460CF012F804460D46DFE75046DA
:10322000BDE8F88F10520200FFFFEF7F145202003A
:10323000FFFFEF4118520200FFFFEFC10000E03F27
:10324000CE5A02000000244037B506990091054689
:10325000FFF740FF04462846FFF7D4FE204403B0A2
:1032600030BD000010B500F047F8FEF7D3F8FEF7C8
:103270000FFEFEF703FE4FF4E1310648064CFFF760
:1032800003FDFDF775F9FDF75DF8002CFBD0AFF3FA
:103290000080F8E7742500200000000010B5044607
:1032A000FEF7B5F884423BBF2401024B4FF0FF30DC
:1032B000185710BD0402002010B5044603F04DF865
:1032C000204610BD10B5044603F047F8204610BD57
:1032D00007B50749684603F07DF84FF47A7200237A
:1032E000DDE900010CF082FC03B05DF804FB00BFD7
:1032F0007028002006F048BD08B5044803F037F8F0
:103300000348BDE8084003F032B800BF8828002019
:103310007028002006F048BD38B50A4C0A4D2046FA
:1033200003F095F82046094C09492A4606F0CBF8E7
:10333000204603F097F82A4620460649BDE8384063
:1033400006F0C1B888280020000200207028002064
:10335000C5320100B932010008B590F900305A1C9D
:1033600004D121220E490F4805F0C8FC012259B1B1
:103370001F2B86BF03F01F030B494FF0A04102FA39
:1033800003F3C1F8083508BD1F2B86BF03F01F03E8
:1033900005494FF0A04102FA03F3C1F80C35F2E7FA
:1033A000A2520200B0520200000300502DE9F8437F
:1033B00004460F46FEF72BF8844236D21C4D4FEAE6
:1033C000041805EB0802D06810B1012106F09CFA40
:1033D0002046FFF763FF8146012006F07FFA0026B2
:1033E00006704946044604F039FD05EB0803012F39
:1033F000DC6010D006D3022F12D0204602F013FB5F
:10340000012103E0204602F00EFB31462046BDE8D4
:10341000F84302F015BB2046BDE8F84302F0F6BAC7
:10342000204602F000FB0321F0E7BDE8F88300BF6F
:1034300004020020F7B506460F46FDF7E8FF864276
:103440001BD20F4D05EB0615EC687CB93046FFF733
:1034500025FF0646012006F041FA002304460370CA
:1034600001220097314604F00FFDEC6039462046FA
:1034700003B0BDE8F040FFF76FBF03B0F0BD00BF81
:10348000040200201EF0040F0CBFEFF30880EFF3DE
:103490000980816911F8021C002932D101B590E838
:1034A0000F10E047BDE800508CE80300244B93E880
:1034B0000600914208BF70471A6041B91EF0100F14
:1034C00010D1204B186820F0010018600AE02CE9A8
:1034D000F00F1EF0100F08BF2CED108A81F822E0CB
:1034E000C1F838C0906B92F8221061F0FF0E1EF008
:1034F000100F08BFB0EC108AB0E8F00F80F3098815
:103500007047114A13689942FAD801B552F821C0A0
:103510000FC8E047BDE80050CCF80000704701B587
:1035200001F030FBBDE80140EFF3098CBEE701B5C7
:1035300001F0ECFABDE80140EFF3098CB6E70000BA
:103540003804002034EF00E09053020008B5014633
:1035500030B96FF0030000F0EEF96FF0030008BD22
:10356000132001F0C9FE30B94FF0FF3000F0E3F94D
:103570004FF0FF30F3E70020F1E7000008B5EFF36C
:1035800005832BB9EFF3108313B9EFF3118333B134
:103590006FF0050000F0CFF96FF0050008BDDFF80F
:1035A00008C000DFFAE700BF4D350100EFF31083DC
:1035B0002BB9EFF31180003818BF012070470120AC
:1035C0007047000038B50546A0B1846802686CB148
:1035D00014F0030302D1C1680F2926D86FF0080147
:1035E000002002F0D7F80024204638BDC368002B25
:1035F000F4D11546104BD3F8900078B100F0FAFBE7
:103600000446A0B10123A3700023C4E90233F322CE
:10361000094B2270094A65605A66E5E7D3F88000D5
:103620000122102100F06EFBEAE71546EBE76FF090
:10363000040102F0AFF8D7E724040020A936010006
:10364000930710B502F0010422D400F10C0384B1F9
:1036500053E8000F00EA01028A4203D0BFF32F8F24
:10366000002005E020EA010243E8002404B1EFE76E
:1036700010BD53E8000F084203D1BFF32F8F002085
:1036800005E020EA010243E8002404B1F1E7EFE796
:10369000C06801EA00031CB1994218BF0020E7E7A7
:1036A000002B08BF0020E3E7F8B58468054604B99D
:1036B000F8BD94F82320616AA7682846FFF7C0FF89
:1036C000064638B1204601F0D6FB0022314620469E
:1036D00001F06AFD3C46EAE7F8B50D4617461E467E
:1036E000044620B10378F32B01D1002907DA2046E4
:1036F0006FF0030102F04EF86FF00300F8BDFFF722
:103700009FFF0028FAD186B13146432001F0F4FD35
:1037100040B1074B5E692046314601F091FB75626E
:1037200086F823706FF00100E8E76FF00200E5E72C
:103730002404002070B5054610B10378F32B07D0A0
:1037400028466FF0030102F025F86FF0030070BD0A
:10375000836863B1284601F085FB00226FF0020107
:1037600001F022FDA8680028F4D101F003FCAB7839
:10377000002613F001032E700FD0094BD3F89040B0
:10378000294624B1204600F04FFB3046DFE7D3F84E
:10379000800000F0EBFA2046D9E71846D7E700BFD3
:1037A000240400202DE9F041064620B10378F32BD4
:1037B00001D1002909DA6FF00301304601F0EAFF78
:1037C0006FF003052846BDE8F08100F10C0353E8D3
:1037D000002F42EA010543E8005000B1F7E7B46862
:1037E0001CB9204601F0C6FBECE794F82320616A7F
:1037F000D4F808803046FFF723FF074678B194F8E5
:1038000023309B0756BF656A054620EA050520461A
:1038100001F031FB00223946204601F0C5FC444648
:10382000DEE7000008B50246EFF3058333B1002060
:103830006FF0050101F0AEFF002008BDFFF7B6FEF6
:103840000028F4D1DFF808C0104600DFF5E700BF1C
:10385000C535010038B50246EFF305834BB192B987
:103860006FF00301104601F095FF6FF0030420464E
:1038700038BDFFF79BFE0028F1D1DFF830C01046BD
:1038800000DF0446F3E71378F32BE9D10029E7DBE7
:1038900002F10C0353E8000F40EA010443E800453D
:1038A00005B1F7E7104601F0B5F9E0E7A5370100EB
:1038B00038B504461D46EFF3058343B18CB9204665
:1038C0006FF0030101F066FF6FF0030038BDFFF7F2
:1038D0006DFE0028F2D1DFF828C020462B4600DF1D
:1038E000F4E72378F32BEAD1002DE8D10029E6DBB9
:1038F0002046FFF7A5FE002808BF6FF00200E5E7AD
:10390000D936010008B50246EFF305833BB11046F6
:103910006FF0050101F03EFF6FF0050008BDFFF7F5
:1039200045FE0028F3D1DFF808C0104600DFF5E7B8
:103930003537010070477047EFF310832BB9EFF371
:103940001180003818BF0120704701207047000027
:10395000064BDA6A3AB1D0695B6C1BB11B699842BD
:1039600028BF184670474FF0FF30F5E724040020C9
:1039700070B5464C237A012B00F0858033B14FF0AF
:10398000FF3001F0FBFE4FF0FF3070BD404DD5E938
:103990000B61EB68E3652B8AA4F854303046AB68C2
:1039A000236400F097F908B1C4F88060D5E9056197
:1039B000304600F08FF908B9D4F880606667D5E921
:1039C0000761304600F086F908B9D4F88060A66730
:1039D000D5E90961304600F07DF908B9D4F8806076
:1039E000E6676E6B3EB1D6E902233168304600F0DF
:1039F000E0F9C4F88460AE6B3EB1D6E902233168C9
:103A0000304600F0D6F9C4F88860EE6B3EB1D6E9D6
:103A100002233168304600F0CCF9C4F88C602E6C7B
:103A20003EB1D6E902233168304600F0C2F9C4F84D
:103A300090606E6C3EB1D6E902233168304600F0EA
:103A4000B8F9C4F89460AE6C3EB1D6E9022331688F
:103A5000304600F0AEF9C4F89860EE6C3EB1D6E99D
:103A600002233168304600F0A4F9C4F89C602D6D43
:103A70003DB1D5E902232968284600F09AF9C4F837
:103A8000A0500123237200207FE700BF2404002000
:103A90002053020070B5254D2B7A012B07D06FF013
:103AA000060001F06BFE4FF0FF34204670BD01F0C0
:103AB00057FC10B94FF0FF30F3E71D4A1D4E1E4969
:103AC0007068FF2382F8223092F82230D26863F0C7
:103AD000FF03DB4314BFB3FA83F32023C3F12003B6
:103AE000C2F30222934298BF531CFE2202FA03F350
:103AF0000F4ADBB2D37701F09DFE04460028D9D1EE
:103B000001F0ECFE286101F0D5FE0C4801F0AAF9A5
:103B100001F028FA3368DB074CBF0223032383F349
:103B20001488BFF36F8F02232B72BEE7240400209A
:103B300000ED00E0205302002F350100400400207A
:103B400010B50F4C237A022B13D101F0BBFE0123D9
:103B50006372BFF34F8F0B4A5168C90042BF4FF0E9
:103B600000615160A37204232372BDE81040FFF787
:103B7000EFBE6FF0070001F001FE002010BD00BF96
:103B80002404002000ED00E038B51E4C237A042BFD
:103B9000054635D1FFF7DCFEE26AA842034694BF32
:103BA00000F1FF332B4612B1D069C01AD061626CAC
:103BB00012B11069C01A1061E06803440544E36063
:103BC000E368AB4213D102230020237201F0D2F943
:103BD00000236372BFF34F8FA27A22B1A3720A4B04
:103BE0004FF080525A60BDE8384001F063BE0133A7
:103BF000E36001F07DF9236D002BE1D09847DFE70A
:103C000038BD00BF2404002000ED00E0704738B547
:103C100004460D46FFF78EFE29462046BDE8384093
:103C200001F06EBD08B5FFF7F1FFEFF3058333B187
:103C30006FF0050001F0A2FD6FF0050008BDFFF771
:103C40007BFE0028F4D1DFF808C000DFF6E700BFF4
:103C50007139010008B5EFF3058333B16FF005004A
:103C600001F08CFD6FF0050008BDFFF765FE002830
:103C7000F4D1DFF808C000DFF6E700BF953A010095
:103C800008B5EFF305832BB16FF0050001F076FD69
:103C9000002008BDFFF750FE0028F5D1DFF804C072
:103CA00000DFF6E7413B010008B50246EFF305836C
:103CB0002BB1BDE808406FF0050001F05FBDFFF7D4
:103CC0003BFE0028F5D1DFF808C0104600DF08BD34
:103CD000893B010010B598B140EA010313F00703D6
:103CE0000ED117290AD90160083910220C188460F6
:103CF00042600B5081684A60C3600123184610BDC2
:103D00000023FBE7F0B578B399B132F003032BD170
:103D10000F3121F0070700F108052B462D685C687C
:103D2000E91A24F00304091B8F4204D929680029E9
:103D3000F3D10846F0BD466804683E44466020441E
:103D4000083841688E4288BF466058683A4318B9BF
:103D50005A6003F10801ECE720F0030019181D5028
:103D60004A6019600831E4E70021E2E730B590B11C
:103D7000D9B1A1F1080500F108040022AC420BD131
:103D800051F8043C23F0030443681B1B436042B911
:103D900041F8042C012030BD236822463BB11C466B
:103DA000ECE751F8083C1360F4E70846F3E71846DF
:103DB000F1E730B5C0B189B1C2B1CBB10024C0E9DF
:103DC000014202FB01F41D190160C36043610561FA
:103DD0001846013904D1A21A99500121084630BD74
:103DE000851805602846F4E70146F7E71146F5E730
:103DF0001946F3E710B50346A8B100F1140252E8E2
:103E0000000F10B9BFF32F8F04E0016842E80014DF
:103E100004B1F4E738B1043353E8002F511C43E8F0
:103E2000001404B1F8E710BD30B5F0B1C3688B429F
:103E30001BD803698B4218D900F114031A680A6071
:103E4000BFF35F8F53E8002F0C689442F6D143E82C
:103E5000001505B1F2E7043050E8003F5A1E40E873
:103E6000002101B1F8E7002030BD6FF00300FBE74F
:103E7000EFF310832BB9EFF31180003818BF012046
:103E8000704701207047036B30B5E3B1CD78002453
:103E9000DA78AA420FD31A46C1E901248AB19160A7
:103EA000A4B16160283050E8003F5A1C40E800216E
:103EB00001B1F8E730BD5A681C46002AECD0134621
:103EC000E6E7C162ECE7C1E90133C1620163E9E7FA
:103ED000D1E9013223B19A608A681AB15360704700
:103EE000C262F9E703637047F8B5877804468FB379
:103EF000C56801460027284605F10C06FFF7E8FFD4
:103F000027703046FFF790FFAB68002B48D0304653
:103F1000FFF770FF0446002842D0284600F0A2FFB9
:103F20003A460646394601F03FF9304601F010F8AE
:103F30006A6A8168064604F10C000DF04BFAF92319
:103F40002370A770F368E37021462846BDE8F84067
:103F5000FFF799BF8568AB68002BF5D05B78832BA2
:103F6000F2D1284600F07EFF3A460646394601F077
:103F70001BF9304600F0ECFF06466A6A806804F1DF
:103F80000C010DF027FAF3680BB1E2781A700023E8
:103F90002370214605F10C00BDE8F840FFF744BF4F
:103FA000F8BD00002DE9F0410C461746984605463D
:103FB00018B10378FA2B00D141B928466FF00301FC
:103FC00001F0FEFB6FF00300BDE8F0818368C3B130
:103FD0005B78832B15D100F045FF012206460021B6
:103FE00001F0E2F8304600F0B3FF06466A6A8068E6
:103FF00021460DF0EFF9F0680028E5D007700020A9
:10400000E2E705F10C00FFF7F5FE064670B1214628
:104010006A6A0C300DF0DEF90024F9233370B470B5
:10402000F77031462846FFF72EFFE8E7B8F1000F9A
:1040300010D04146932001F05FF940B1074B28466C
:10404000596900F0FDFEEFF30983C3E902476FF001
:104050000100B9E76FF00200B6E700BF24040020BA
:104060002DE9F84F8846074638B131B1B0FA80F3F0
:10407000B1FA81F10B441F2B06DC6FF00301002025
:1040800001F09EFB002470E008F1030626F0030611
:104090000C3606FB00F9F2B194683CB1A30702D1DB
:1040A000D368332B05D86FF00801E8E7D368002BFD
:1040B000F9D1D2E90453D2F800A03DB115F0030BB9
:1040C00001D1994554D96FF00901D8E7002BFAD1F5
:1040D0001CB19B460CE092461546274BD3F8A00036
:1040E000D8B1FFF787FE0446A0B14FF0010B35BBF6
:1040F000214B0022D86F4946FFF704FE0546C0B9A0
:10410000BBF1000F06D01C4BD3F8A000214658B1DC
:10411000FFF78AFE6FF00401B1E7D3F880000122B7
:104120003421FFF7EFFDDEE7D3F88000FFF71EFE36
:10413000F0E74A4600210DF04BFA4BF0020BFA2350
:1041400023700023C4E90983C4E90B33A36032461A
:104150002B4684F802B0C4F804A0394604F10C00E0
:10416000FFF727FE044B054A1A672046BDE8F88F83
:10417000002CE4D1B1E700BF24040020E93E010097
:1041800010B500F1280353E8002F12B9BFF32F8FA9
:1041900004E0511E43E8001404B1F4E70AB900201A
:1041A00010BDC06A01230028F9D0821CD2E84F1F3D
:1041B000C2E8443F04B1F9E711F0FF0FF0D0806886
:1041C000F1E700002DE9F0410F46154698460446F8
:1041D00018B10378FA2B00D141B920466FF00301E2
:1041E00001F0EEFA6FF00300BDE8F081FFF7C8FFC1
:1041F000064600283AD001462046FFF769FE626A6B
:1042000006F10C0138460DF0E5F80DB1F3782B708E
:10421000002504F10C07357031463846FFF704FEDF
:10422000A3680BB90020DFE73846FFF7E3FD064639
:104230000028F7D0204600F015FE29460746012247
:1042400000F0B2FF384600F083FE626A81680746DC
:1042500006F10C000DF0BEF8F9233370B570FB6861
:10426000F37031462046FFF70EFEDBE7B8F1000F92
:1042700010D04146832001F03FF840B1074B204663
:10428000596900F0DDFDEFF30983C3E902756FF0B2
:104290000100A9E76FF00200A6E700BF2404002098
:1042A00008B5064B08219A6ED86EFFF7D9FE044B6D
:1042B000D864B0FA80F04009404208BD20530200A3
:1042C000240400202DE9F04106460F4690461C4686
:1042D000EFF305834BB196B930466FF0030101F05F
:1042E0006FFA6FF00300BDE8F081FFF7C1FD002811
:1042F000F1D1DFF84CC03046234600DFF3E73378D6
:10430000FA2BE9D1002FE7D0002CE5D106F10C0003
:10431000FFF770FD054680B1726A39460C300DF02A
:1043200059F8F9232846C5E901762B70AC7085F859
:10433000038000F06FFC2046D5E76FF00200D2E763
:10434000A53F0100F8B504460F4616461D46EFF39B
:10435000058343B18CB920466FF0030101F030FAB8
:104360006FF00300F8BDFFF783FD0028F2D1DFF8FE
:1043700048C020462B4600DFF4E72378FA2BEAD129
:10438000002FE8D0002DE6D12046FFF7F9FE0546C4
:1043900070B100F10C01626A38460DF01BF80EB1E5
:1043A000EB7833702846EC6000F034FC0020D9E74D
:1043B0006FF00200D6E700BFC5410100EFF31083A4
:1043C0002BB9EFF31180003818BF0120704701208E
:1043D0007047000070B5A8B38468D0E900566CB18E
:1043E00014F0030302D1C2681B2A1AD86FF0080127
:1043F000002001F0D5F90024204670BDC368002BD1
:10440000F4D1124BD3F8940030B9D3F880000122D4
:104410001C21FFF777FC01E0FFF7ECFC044660B1DC
:104420000123F522A3700023C4E90233C4E9043355
:104430002270E67065602376DEE76FF0040101F01C
:10444000AFF9D9E705460646DBE700BF24040020A4
:10445000284B70B55D6904460E4635B96FF007010B
:1044600001F09EF94FF0FF3070BD10B10378F52BCD
:1044700007D020466FF0030101F092F96FF00300BE
:10448000F2E7037E53B9C0E90353EB6A436103B11A
:104490001861EC62012323760020E5E7C278D1079A
:1044A0000DD5C168A9420AD1FF2B06D16FF00F01CB
:1044B00001F076F96FF00200D6E70133EBE7002E4A
:1044C000F8D093070AD5E06895F9203090F92020BC
:1044D0009A4203DA80F8203000F0D6FC31465320AF
:1044E00000F00AFF18B12946204600F0A9FC6FF041
:1044F0000100B9E7240400202E4B5A6970B5044628
:1045000032B96FF0070101F04BF94FF0FF3070BD89
:1045100010B10378F52B07D020466FF0030101F0AE
:104520003FF96FF00300F2E7037E33B96FF00E013D
:1045300001F036F96FF00200E9E7C168914202D05C
:104540006FF00D01F4E7013BDBB2037613BB436967
:104550000BB1016919612169F1B14B6192F9213007
:10456000D56ADDB982F82030A36883B1204600F017
:1045700079FC06462A46294600F016FEF36A636176
:10458000C4E9036503B11C610123F46223760020B2
:1045900000F0F0FC0020BAE7D362DFE7E978890792
:1045A00006D5A96821B191F920108B42B8BF0B46FE
:1045B0006D69D6E72404002070B5044610B1037875
:1045C000F52B07D020466FF0030101F0E9F86FF0FA
:1045D000030070BD037EBBB16369C0680BB1226983
:1045E0001A61226902B3536190F92120C36AEBB9C1
:1045F00090F92030934203D080F8202000F044FC52
:10460000A068F8B900F0B6FCA078002610F0010010
:104610002670DED0134BD3F894502146DDB12846E6
:10462000FFF702FC3046D4E7C362DDE7D97889079B
:1046300006D5996821B191F920108A42B8BF0A467F
:104640005B69D4E7204600F00DFC00226FF0020108
:1046500000F0AAFDD4E7D3F88000FFF787FB2846D7
:10466000B7E700BF240400202DE9F04104460026EE
:1046700001270CB9BDE8F081E378D4F814801B075A
:1046800012D5A36826767BB1204600F0EBFB002212
:104690000546114600F088FDEB6A6361C4E90356E4
:1046A00003B11C61EC6227764446E2E710B4C3789C
:1046B0009B071DD5C06890F92120C36ADC78A40748
:1046C00009D59C688C4208BF8C6824B194F92040BD
:1046D000A242B8BF22465B69002BEFD190F920308F
:1046E000934205D080F820205DF8044B00F0CCBB4D
:1046F0005DF8044B7047000008B50246EFF30583F0
:1047000033B100206FF0050101F04AF8002008BD28
:10471000FFF754FE0028F4D1DFF808C0104600DF90
:10472000F5E700BFD543010008B50246EFF3058366
:104730003BB110466FF0050101F032F86FF0050053
:1047400008BDFFF73BFE0028F3D1DFF808C0104694
:1047500000DFF5E75144010008B50246EFF3058399
:104760003BB110466FF0050101F01AF86FF005003B
:1047700008BDFFF723FE0028F3D1DFF808C010467C
:1047800000DFF5E7F944010008B50246EFF30583C1
:104790003BB110466FF0050101F002F86FF0050023
:1047A00008BDFFF70BFE0028F3D1DFF808C0104664
:1047B00000DFF5E7B9450100EFF310832BB9EFF304
:1047C0001180003818BF01207047012070470C305D
:1047D000D0E85F3F13B9BFF32F8F04E05A1EC0E843
:1047E000512F01B1F4E798B2003818BF012070478B
:1047F00030B500F10C02C189D2E85F3F994202D87E
:10480000BFF32F8F04E05C1CC2E8554F05B1F3E7FE
:10481000C0899BB2984294BF0020012030BD0000A7
:10482000F8B515464FF6FE73421E9A4206460F46ED
:1048300001D8884207D26FF00301002000F0B6FFD4
:1048400000242046F8BD7DB1AC682A6844B114F05C
:10485000030302D1E9680F2922D86FF00801ECE7C1
:10486000EB68002BF9D11546114BD3F8980080B1B5
:10487000FFF7C0FA0446A8B10123A3700023F62273
:10488000A3600B4B22700B4A6560A781E6819A6694
:10489000D7E7D3F8800001221021FFF733FAE9E7C8
:1048A0001546EAE76FF0040100F080FFC9E700BF9A
:1048B00024040020B9480100836810B504465BB1A8
:1048C000FFF785FF40B1204600F0CCFA0022BDE89A
:1048D0001040114600F068BC10BD38B5054610B157
:1048E0000378F62B07D028466FF0030100F05EFF37
:1048F0006FF0030038BD84683CB100F0B3FA0122C8
:10490000002100F051FC0020F4E7FFF771FF38B9F7
:1049100028466FF0100100F049FF6FF00200E9E750
:104920002046E7E738B50D46044610B10378F62B6C
:1049300007D020466FF0030100F038FF6FF003004E
:1049400038BDFFF744FF68B975B12946632000F010
:10495000D3FC20B1064B2046596900F071FA6FF084
:104960000100EDE70020EBE76FF00200E8E700BF91
:104970002404002070B5054610B10378F62B07D04B
:1049800028466FF0030100F011FF6FF0030070BDC7
:10499000836863B1284600F065FA00226FF00201D7
:1049A00000F002FCA8680028F4D100F0E3FAAB782C
:1049B000002613F001032E700FD0094BD3F8984056
:1049C000294624B12046FFF72FFA3046DFE7D3F817
:1049D0008000FFF7CBF92046D9E71846D7E700BF9C
:1049E0002404002010B50446EFF3058333B1002002
:1049F0006FF0050100F0DAFE002010BDFFF7DCFECD
:104A00000028F4D1DFF808C0204600DFF5E700BF3A
:104A10002148010008B50246EFF3058343B182B98E
:104A200010466FF0030100F0C1FE6FF0030008BDF7
:104A3000FFF7C2FE0028F2D1DFF824C0104600DFE5
:104A4000F5E71378F62BEBD10029E9D11046FFF7F3
:104A5000BEFE002814BF00206FF00200E7E700BF91
:104A60002549010010B50446EFF3058343B184B92D
:104A700020466FF0030100F099FE6FF0030010BDB7
:104A8000FFF79AFE0028F2D1DFF830C0204600DFA1
:104A9000F5E72378F62BEBD12046FFF7A9FE20B1EE
:104AA000204600F0B7F80020E9E720466FF010013B
:104AB00000F07CFE6FF00200E1E700BFDB48010080
:104AC00008B50246EFF305833BB110466FF00501D0
:104AD00000F06CFE6FF0050008BDFFF76DFE0028CA
:104AE000F3D1DFF808C0104600DFF5E77549010093
:104AF00010B5D0E85F3F5A1C914200D80022C0E8B0
:104B0000542F04B1F5E798B210BD000038B51C4C25
:104B100000F0DEFEE3680133E36000F0E9F9002015
:104B200000F028FA236D03B19847226C32B3A369D1
:104B3000E16B994203D0D969E36301B9DA61DA69BB
:104B4000C2B9237A022B19D1656ABDB1E36B95F91D
:104B5000202093F920309A4210D1284600F08BF99A
:104B6000E06B00F0A3F9284600F0FCF9236CE56344
:104B7000EB6103E0013ADA61002AE2D038BD00BF00
:104B80002404002070B5224C04F1560504F15A06A5
:104B9000B4F85410D5E85F3F13B9BFF32F8F04E08A
:104BA0005A1EC5E8502F00B1F4E79BB25BB3304604
:104BB000FFF79EFFE36D53F8200020B30378F13B2D
:104BC000082BE5D801A252F823F000BFF14B0100F9
:104BD000914B0100F74B0100914B0100914B0100FB
:104BE000FB4B0100FF4B0100914B0100034C010006
:104BF000236E9847CCE7636EFBE7A36EF9E7E36E9D
:104C0000F7E7236FF5E7BDE87040002000F0B2B988
:104C10002404002070B5164C0546B4F8541004F175
:104C20005602D2E85F3F994202D8BFF32F8F04E0CB
:104C3000581CC2E8560F06B1F3E79BB2994205D85B
:104C400029460220BDE87040FEF7E1BF04F158009C
:104C5000FFF74EFFE36D43F82050637A23B9054B0D
:104C60004FF080525A6070BD0123A372FBE700BF72
:104C70002404002000ED00E0EFF310832BB9EFF3E4
:104C80001180003818BF0120704701207047037859
:104C9000F12B00D07047C068F9E7000010B5C46977
:104CA000621CD0E904310CD103B1596142691AB1D7
:104CB00013610023436101E0074A13630023C361CA
:104CC00010BD1BB1DA6959612244DA614269002AD8
:104CD000EED1014AD362F1E72404002010B50A4A5C
:104CE00090F9201001234370536A1C321BB193F9D1
:104CF00020408C4205DCC0E90232906003B1D860EC
:104D000010BD1A469B68F1E724040020014B586946
:104D1000704700BF2404002008B500F057FDDFF8FD
:104D200010C000DF4FF0FF31002000F02DFDFEE746
:104D300011520100930710B502F0010422D400F1D2
:104D4000280384B153E8000F00EA01028A4203D02D
:104D5000BFF32F8F002005E020EA010243E8002482
:104D600004B1EFE710BD53E8000F084203D1BFF3D1
:104D70002F8F002005E020EA010243E8002404B15F
:104D8000F1E7EFE7806A01EA00031CB1994218BF1E
:104D90000020E7E7002B08BF0020E3E710B5084A32
:104DA000136B00213BB94FF0FF34C0E90431C461FB
:104DB00021B1086110BD19461B69F3E71063F9E7DB
:104DC0002404002010B50023038083789A0704464A
:104DD00008D513F0100F016B0E4B0FD0D3F88400E1
:104DE000FFF722F8A378DB0712D50A4BD3F8880027
:104DF000214638B1BDE81040FFF716B8586FFEF7EE
:104E0000B5FFEFE7BDE81040D3F88000FEF7AEBF76
:104E100010BD00BF24040020C278D207034601D48D
:104E2000FFF7D0BF042242700022C260034A516BD8
:104E3000816001B1C8605363704700BF2404002043
:104E400010B591F9202083681BB193F9204094425A
:104E500005DAC1E90230816003B1D96010BD18469E
:104E60009B68F1E783689A68826002B1D060002293
:104E7000DA6018467047C2682AB18368936003B14C
:104E8000DA600023C360704710B50146044664B180
:104E90002378F12B07D00846FFF7EDFF2046BDE849
:104EA0001040FFF7CDBFE468F1E710BD01230146D4
:104EB00043700148FFF7C4BF4004002070B50B4D9C
:104EC0002E7A022E10D16C6A74B1696994F920208F
:104ED00091F920309A4207D12046FFF7CCFF0846CF
:104EE000FFF7E4FF6670AC61002070BD2404002071
:104EF00038B5164DEC6A44B3E369013BE36123BB6B
:104F00006378732B06D009D8532B0BD003F0DF0343
:104F1000432B0DD12046FFF7BAFE09E003F0EF0363
:104F2000832BF6E72046FFF7B2FE2146FFF7BEFBD4
:104F30002046FFF7A0FFFFF7B9FF246924B1E3691A
:104F4000002BDDD000236361EC6238BD2404002017
:104F500090F82230826B13F0100F0CBF60202020DD
:104F60001044704702234370014B9861704700BFA3
:104F70002404002070B5124D04462E7A696990B958
:104F8000022E0FD16C6A6CB194F9202091F9203077
:104F90009A4207DD2046FFF76EFF0846FFF79EFEA8
:104FA0006670AC6170BD022E05D190F9202091F998
:104FB00020309A42F1DC2046BDE87040FFF776BF12
:104FC000240400202DE9F04F85B08146029128B9D4
:104FD0006FF0030100F0D8FB0024BCE0002A45D0AC
:104FE000966846B1B40702D1D368432B06D86FF058
:104FF00008010020EEE7D368002BF8D1D2E9044580
:1050000097693CB1600702D1002D40F0B2806FF08B
:105010000A01EEE72FB17B1E372B03D96FF00B018E
:10502000E7E71827002D40F0A880D2E900A30193FC
:105030004EBB574BD3F88800F0B1FEF7DBFE0646B7
:1050400000283AD04FF00108002C44D1DFF840B1DD
:10505000E5B9504ADBF88400556DB8B1FEF7CAFED9
:105060000246E0B148F01008344623E09246144668
:10507000182715460192DCE7D3F88000012244216D
:10508000FEF740FEDBE74FF00008DDE72246DBF8E5
:1050900074002946FEF736FE02460028E4D1B8F136
:1050A000000F16D0DBF8882052B110463146FEF7CB
:1050B000BBFE002248F002087CB96FF0040198E7BB
:1050C000DBF8800003923146FEF750FE039A144647
:1050D000F0E74246EEE72246344640F2F1132380E1
:1050E000019BE3700023C4E90233C4E90433C4E93B
:1050F0000633C4E90933C4E90B32A5F14003134474
:10510000C4E90E397FB2244B84F80280FD21C4F833
:1051100004A084F8207084F82170618465631360B2
:105120001C4B1B685B071AD4A36B00201A4603F1C3
:10513000340143F8040B9942FBD1184BC2E90D39F5
:105140004FF08073D363029B1362114B144A1A66AB
:105150002046FFF70FFF204605B0BDE8F08FAD08F1
:10516000113D4FF0CC33002DDED042F8043F013D1D
:10517000F9E7002F7FF44FAF182769077FF447AF97
:10518000084BA5F1480199427FF64FAF3FE700BFBA
:105190002404002020530200A52E5AE2194D0100DC
:1051A000CD510100B7FFFF7F38B504461546FFF724
:1051B000CFFE01602046FFF771FD1DB1BDE838400C
:1051C000FFF7D8BEBDE83840FFF770BE10B5437892
:1051D000332B04460CD1416A90F82320FFF7AAFD37
:1051E000014628B120460022BDE81040FFF7DCBF91
:1051F00010BD10B50446806918B100221146FFF7B2
:10520000D3FF6378232B02BFA36800229A6110BDED
:1052100070B50F4C267A022E18D1636AB3B1656956
:10522000E86AFFF721FA2846FFF7E3FF04F11C00C4
:10523000FFF718FE4670A061EFF30983AB6300230C
:1052400063612846BDE87040FFF7E6BD70BD00BF52
:105250002404002010B5044610B10378F12B07D0C8
:1052600020466FF0030100F08FFA6FF0030010BDCD
:10527000437803F00F03022B1ED0032B2BD0012BFE
:105280002ED1FFF7F8FDE06AFFF7EEF92046FFF7B1
:10529000B0FF6178022926D11548FFF7E3FD154BD1
:1052A00041709861EFF30982A26300225A6120469F
:1052B000FFF7B2FD0020DAE70E4B1A7A022A02D17C
:1052C0005B6A002BDFD16FF00201204600F05CFA30
:1052D0006FF00200CBE7FFF7CEFDFFF7DFFCD2E770
:1052E0006FF00201F2E70020FFF744FEDFE700BFA6
:1052F000400400202404002038B5174C237A022BE8
:10530000024627D1606A60B160694B1C427009D1C6
:10531000FFF744FD1148FFF7A5FD02234370A0618C
:10532000012038BDE36A002213B1DD69A9420BD226
:10533000C0E90432C1615AB11061002BEAD0DA69C8
:105340005861511AD961E5E71A46491B1B69EBE719
:10535000E062F2E70020E4E724040020400400209B
:1053600038B50D4C0D48A26D0D4D0021FFF72AFEFA
:10537000636EA8625BB1984758B9E26DE96C206E24
:10538000FFF720FEA864003818BF012038BD0120B7
:10539000FCE70020FAE700BF20530200F9560100A5
:1053A0002404002010B50446EFF3058333B1002038
:1053B0006FF0050100F0E8F9002010BDFFF75CFC7C
:1053C0000028F4D1DFF808C0204600DFF5E700BF71
:1053D000C54F010008B5EFF3058313B1054B5869BC
:1053E00008BDFFF749FC0028F8D1DFF80CC000DF4A
:1053F000F6E700BF240400200D4D010008B5EFF3CF
:1054000005833BB100206FF0050100F0BDF96FF09E
:10541000050008BDFFF730FC0028F3D1DFF804C019
:1054200000DFF6E7BD4E010010B5044600F0DAF9E2
:10543000EFF305833BB120466FF0050100F0A4F9BE
:105440006FF0050010BDFFF717FC0028F3D1DFF85F
:1054500008C0204600DFF5E7555201000C4A536CA6
:1054600030B5002413B11D698D420AD9C0E9024349
:1054700001611BB11D699860691A19612CB1E06066
:1054800030BD1C46491BDB68ECE75064F8E700BF01
:10549000240400202DE9F041184D6C6C54B32369AD
:1054A0006E69013B23610127236913BBE3680BB1DC
:1054B000A2689A606B640023E86C1A4604F1180134
:1054C000FEF700FF58B1D5E90583214603206B6143
:1054D000FEF79DFB6B6913B9B04508BF0026E37862
:1054E000012B09D161692046FFF7B8FF6C6C002CD5
:1054F000DAD16E61BDE8F0816770F7E7240400201F
:1055000008B5FEF7CDFE18B9034B044A1A6508BD6D
:105510004FF0FF30FBE700BF24040020955401004A
:1055200007B504464FF0FF33002269462046FEF7D8
:1055300009FF0028F6D1DDE900309847F2E70000C6
:1055400008B5094B094A1A60094B9B1A094A1360AE
:10555000094B0A4A1A600A4B9B1A0A4A136000F068
:1055600051F800F069F800BF542F002000FC032020
:1055700000000420502F00205C32002040BE00209C
:1055800000FC0320583200200E4838B50E4B036053
:105590000B250E4B45601C24C4608360FFF7ACF8FC
:1055A0000B4B18600B480C4BC460C0E900350B4B2B
:1055B0008360FFF7A1F80A4B1860BDE838400BF094
:1055C00019BB00BF202F0020F4530200342F00200D
:1055D000302F0020F02E002001540200042F002064
:1055E000002F0020FDF73EBE024B4FF0FF31186840
:1055F000FFF79AB8302F0020014B1868FFF7ACB8BE
:10560000302F002008B505F061FEBDE8084000F02D
:1056100011B87047704708B500F042F8FFF7F9FF7E
:10562000FFF7B2FFFFF7F6FF03F082FDBDE8084089
:10563000FFF7D8BFFEF7F6BA114C124B23614FF4B7
:10564000004363614423E3600F4BA360182307B555
:10565000A3610E480E4B236022460021FFF7A2FEF5
:10566000034628B90B49009022460B4803F068FD19
:10567000FEF7F0FA0023094900931A46F5E700BF48
:1056800038B9002038390020582F00201756010063
:105690001B540200205402001D0101803C540200F2
:1056A0001FB5064B0FCB6C4684E80F002046FFF772
:1056B00023F8034B186004B010BD00BF545402001F
:1056C0003039002073B506460C46154603F032FD0E
:1056D00058B906342ABF064B064953F82410002354
:1056E00000933246284603F02BFD02B070BD00BF88
:1056F000185602006C55020008B500F0F3F80000DF
:1057000007B50023421E00930023042A19D8DFE8BE
:1057100002F003080C1014000C490D48012203F09C
:105720000FFD0C490C480222F9E70C490C480322F2
:10573000F5E70C490C480422F1E70C490C48052216
:10574000EDE702460B490C48E9E700BF645402004C
:10575000250102808554020026010280AA5402001D
:1057600027010280DF540200280102801A5502003E
:105770002A0102805A55020000010280014A0146B6
:10578000FFF7A0BF31010180014AFFF79BBF00BFB7
:1057900032010180014AFFF795BF00BF3701018048
:1057A000014AFFF78FBF00BF3301018011F1110FD4
:1057B00002D0024AFFF786BF704700BF3401018064
:1057C000014AFFF77FBF00BF3801018010B5FFF726
:1057D00001FE034B1B6813B1BDE81040184710BD14
:1057E0009C2F0020024B1B6803B11847704700BF75
:1057F0009C2F0020024B987A003818BF0120704778
:105800002404002008B5FEF73BFA0749002203F004
:1058100029FDC31C04D9054905488B2203F06EFA03
:10582000BDE80840FEF740BAF557010053560200A4
:1058300065560200B0F57A7F38B50D4604D0184998
:105840001848322203F05AFA02F068FF041E13DBF4
:1058500004F1604303F56143E02283F80023294605
:10586000204604F00BFF204604F010FF85420AD0CA
:105870000B490D483F22E5E70C4B04F00F0213449F
:10588000E0221A76EBE7002C08DB094B62090120C5
:1058900004F01F0400FA04F443F82240002038BD4D
:1058A00053560200925602009F560200FCEC00E0A4
:1058B00000E100E008B503F05DFCBDE8084003F03E
:1058C0002CB80000014B186803F05CB88831002048
:1058D000014B186803F018B88831002008B502F0B1
:1058E0001DFF08BD08B5024C23689847FCE700BFC0
:1058F000C804002003680BB108461847704710B56C
:105900000446FDF777F8204610BD08B5FDF736F9D7
:1059100008BD0000044B0022C3E901221A611A608D
:10592000024ADA60704700BFA02F0020F55801003E
:105930000346002210B503F8012B00F1110403F80F
:10594000012B9C42FBD1418210BD000008B542F6FC
:1059500002110248FFF7ECFF08BD00BFB42F002082
:10596000034B1A78034B53F8223003B118477047A2
:10597000CC040020C82F0020074B1B785BB1074BDD
:105980000122C3F80823064B5A78FF2A00D1FEE70C
:10599000044A12885A70704778BA002000F000401C
:1059A0009ABA0020DCBC0020F8B50546064655F83A
:1059B000044B8CB90D4F386818B14FF0FF31FEF72A
:1059C000B3FE346824B9284604F04CF92C463560FF
:1059D000386808B1FEF7C0FEAC4204D0044905485F
:1059E0008B2203F08BF92046F8BD00BF3039002030
:1059F000F0560200FF560200036801221B690021D5
:105A00001847036800221B691146184707B5019023
:105A100003F024FA0198012105F0BEF903B05DF806
:105A200004EB03F031BA07B5019003F017FA0198BF
:105A3000002105F0B1F903B05DF804EB03F024BADE
:105A400007B5CDE9001003F009FADDE9001005F013
:105A500081F903B05DF804EB03F016BA416830B485
:105A6000034671B1D0E9032000F0010402B944B14A
:105A7000451001EB60000CB149598A58996830BC57
:105A8000104730BC7047000008B5431C04D10F49D3
:105A90000F48212203F032F9012359B11F2886BF94
:105AA0000C4A00F01F004FF0A04203FA00F0C2F8C9
:105AB000080508BD1F2886BF064A00F01F004FF0EA
:105AC000A04203FA00F0C2F80C05F2E74F570200BB
:105AD000B052020000030050036870B504460D4642
